:020000040000FA
:100000000C9435000C945D000C945D000C945D0024
:100010000C945D000C945D000C945D000C945D00EC
:100020000C945D000C945D000C945D000C945D00DC
:100030000C945D000C945D000C945D000C945D00CC
:100040000C94FA030C945D000C94C8030C94A20366
:100050000C945D000C945D000C945D000C945D00AC
:100060000C945D000C945D003C0511241FBECFEF85
:10007000D8E0DEBFCDBF11E0A0E0B1E0E6E7FBE0F5
:1000800002C005900D92A632B107D9F721E0A6E291
:10009000B1E001C01D92A53EB207E1F710E0C5E353
:1000A000D0E004C02197FE010E94B305C433D107FC
:1000B000C9F70E9444040C94B9050C940000AF9257
:1000C000BF92CF92DF92EF92FF920F931F93CF9345
:1000D000DF936C017B018B01040F151FEB015E01A7
:1000E000AE18BF08C017D10759F06991D601ED913C
:1000F000FC910190F081E02DC6010995892B79F7DB
:10010000C501DF91CF911F910F91FF90EF90DF908C
:10011000CF90BF90AF900895FC01538D448D252F53
:1001200030E0842F90E0821B930B541710F0CF9691
:10013000089501970895FC01918D828D981761F0C3
:10014000A28DAE0FBF2FB11D5D968C91928D9F5FDA
:100150009F73928F90E008958FEF9FEF0895FC01B9
:10016000918D828D981731F0828DE80FF11D858D6C
:1001700090E008958FEF9FEF0895FC01918D228DFF
:10018000892F90E0805C9F4F821B91098F73992784
:10019000089588E491E00E94BD0021E0892B09F4D4
:1001A00020E0822F089580E090E0892B29F00E94C2
:1001B000C90081110C9400000895FC01A48DA80FC2
:1001C000B92FB11DA35ABF4F2C91848D90E0019699
:1001D0008F739927848FA689B7892C93A089B189B9
:1001E0008C91837080648C93938D848D981306C05A
:1001F0000288F389E02D80818F7D80830895EF92BE
:10020000FF920F931F93CF93DF93EC0181E0888FD0
:100210009B8D8C8D98131AC0E889F989808185FFA0
:1002200015C09FB7F894EE89FF896083E889F98942
:1002300080818370806480839FBF81E090E0DF9144
:10024000CF911F910F91FF90EF900895F62E0B8D97
:1002500010E00F5F1F4F0F731127E02E8C8D8E1152
:100260000CC00FB607FCFACFE889F989808185FFB9
:10027000F5CFCE010E94DD00F1CFEB8DEC0FFD2F0D
:10028000F11DE35AFF4FF0829FB7F8940B8FEA8974
:10029000FB8980818062CFCFCF93DF93EC01888D83
:1002A0008823B9F0AA89BB89E889F9898C9185FDF1
:1002B00003C0808186FD0DC00FB607FCF7CF8C917F
:1002C00085FFF2CF808185FFEDCFCE010E94DD005A
:1002D000E9CFDF91CF9108953FB7F89480913D0128
:1002E00090913E01A0913F01B091400126B5A89B9D
:1002F00005C02F3F19F00196A11DB11D3FBFBA2FB8
:10030000A92F982F8827BC01CD01620F711D811D77
:10031000911D42E0660F771F881F991F4A95D1F7FC
:100320000895609334017093350180933601909362
:100330003701645D7E4F8F4F9F4F60933001709304
:100340003101809332019093330182E090E09093E9
:100350002F0180932E012FB7F8948091390190914D
:100360003A01A0913B01B0913C012FBF80932A013B
:1003700090932B01A0932C01B0932D010895CF925F
:10038000DF92EF92FF920F931F938FB7F894C09074
:100390003901D0903A01E0903B01F0903C018FBFD1
:1003A00000912A0110912B0120912C0130912D01F7
:1003B000C01AD10AE20AF30A609134017091350142
:1003C000809136019091370148EEC41643E0D4067F
:1003D000E104F104C8F06F5F7F4F8F4F9F4F609330
:1003E00034017093350180933601909337010851A1
:1003F0001C4F2F4F3F4F00932A0110932B01209346
:100400002C0130932D01C1CF1F910F91FF90EF90E0
:10041000DF90CF9008954F925F926F927F928F926C
:100420009F92AF92BF92CF92DF92EF92FF920F9383
:100430001F93CF93DF934B015C0180912601909134
:100440002701A0912801B091290188159905AA05D5
:10045000BB0509F4C6C08CE3C82ED12CE12CF12CCD
:10046000C501A70196010E947D0560934101CA0163
:10047000B901A70196010E947D0560934201C50163
:10048000B40120E13EE040E050E00E947D05CA0159
:10049000B90128E130E040E050E00E947D05609322
:1004A0004301C501B40120E831E541E050E00E947C
:1004B0007D0569017A01CA01B9016C5F7F4F8F4FD9
:1004C0009F4F27E030E040E050E00E947D056F5FE5
:1004D00060934401412C512C320140E004E610E0CD
:1004E000C0E9D1E0242F30E02E54384FF901E370F9
:1004F000FF273097F9F4C901B8010E946905892BDB
:1005000031F4C901BE010E946905892B99F48EE678
:1005100091E0A0E0B0E0480E591E6A1E7B1ED30198
:10052000C201AA27BB27C816D906EA06FB0638F07F
:100530004F5FD8CF8DE691E0A0E0B0E0ECCF4093E4
:100540004701C90164E670E00E946905EC01C90138
:1005500060E971E00E946905309721F42097D9F491
:100560000097C9F04DE651E060E070E0441A550A8A
:10057000660A770AC418D508E608F708A0E0B1E0D3
:1005800020E0213069F43097E9F5209711F40097C5
:10059000C9F54DE106C04EE651E060E070E0E6CFFF
:1005A0004C9150E070E060E031E0320FC416D506A7
:1005B000E606F70640F0C41AD50AE60AF70A1196CD
:1005C000232F3C30F1F62F5F20934601C394C09255
:1005D00045018092260190922701A0922801B092B5
:1005E0002901DF91CF911F910F91FF90EF90DF9044
:1005F000CF90BF90AF909F908F907F906F905F90C3
:100600004F9008954CE1CDCFFC0101900020E9F717
:100610003197AF01481B590BBC0188E491E00C9461
:100620005F008F929F92AF92BF92CF92DF92EF9234
:10063000FF920F931F93CF93DF93CDB7DEB7A197B0
:100640000FB6F894DEBF0FBECDBF6C01990FEE0858
:10065000FF08F7FE41C06DE288E491E00E94FF00D0
:100660008C0122273327A9012C193D094E095F0966
:1006700019A2CE0181967C019AE0892E912CA12CA1
:10068000B12CCA01B901A50194010E947D05605DEC
:10069000F70162937F01211531054105510589F765
:1006A00090E080E0309719F0CF010E940403800FA2
:1006B000911FA1960FB6F894DEBF0FBECDBFDF919C
:1006C000CF911F910F91FF90EF90DF90CF90BF904F
:1006D000AF909F908F900895A701960119A28E0167
:1006E0000F5D1F4F8AE0C82ED12CE12CF12CCA01DE
:1006F000B901A70196010E947D05605DF801629332
:100700008F01211531054105510589F790E080E001
:10071000309779F2CF010E940403CBCFCF93DF93C0
:10072000EC018EE191E00E940403CA30D1052CF463
:1007300060E388E491E00E94FF00CE01DF91CF9159
:100740000C9411031F920F920FB60F9211242F9346
:100750003F934F935F936F937F938F939F93AF9349
:10076000BF93EF93FF9388E491E00E94DD00FF9137
:10077000EF91BF91AF919F918F917F916F915F9119
:100780004F913F912F910F900FBE0F901F90189592
:100790001F920F920FB60F9211242F938F939F9356
:1007A000EF93FF93E0915801F09159018081E0911E
:1007B0005E01F0915F0182FD1BC09081809161011B
:1007C0008F5F8F7320916201821741F0E091610188
:1007D000F0E0E85BFE4F958F80936101FF91EF9110
:1007E0009F918F912F910F900FBE0F901F90189592
:1007F0008081F4CF1F920F920FB60F9211242F9386
:100800003F938F939F93AF93BF93809139019091C2
:100810003A01A0913B01B0913C013091380123E0B5
:10082000230F2D3758F50196A11DB11D20933801D6
:100830008093390190933A01A0933B01B0933C011E
:1008400080913D0190913E01A0913F01B091400106
:100850000196A11DB11D80933D0190933E01A0938F
:100860003F01B0934001BF91AF919F918F913F9114
:100870002F910F900FBE0F901F90189526E8230F11
:100880000296A11DB11DD2CF789484B5826084BD3B
:1008900084B5816084BD85B5826085BD85B5816084
:1008A00085BD80916E00816080936E001092810002
:1008B00080918100826080938100809181008160BD
:1008C000809381008091800081608093800080917E
:1008D000B10084608093B1008091B000816080930A
:1008E000B00080917A00846080937A0080917A00D1
:1008F000826080937A0080917A00816080937A0090
:1009000080917A00806880937A001092C100E09113
:100910005801F091590182E08083E0915401F091F7
:1009200055011082E0915601F09157018FEC8083C0
:1009300010926001E0915C01F0915D0186E080839E
:10094000E0915A01F0915B01808180618083E091A8
:100950005A01F0915B01808188608083E0915A01A7
:10096000F0915B01808180688083E0915A01F09171
:100970005B0180818F7D808360E675EE8FEF9FEF56
:100980000E949101C0E0D0E00E94BF010E940B02D2
:100990008091430190E00E9411030E94BF010E94D8
:1009A0000B028091420190E00E948E030E94BF01E1
:1009B0000E940B028091410190E00E948E0380E230
:1009C00091E00E9404030E94BF010E940B028091EB
:1009D000450190E00E94110380E291E00E9404032F
:1009E0000E94BF010E940B028091460190E00E948C
:1009F000110380E291E00E9404030E94BF010E9463
:100A00000B028091470190E08E54984F0E94110391
:100A100082E291E00E9404030E946C014B015C01A0
:100A200088EEC82E83E0D82EE12CF12C0E946C01B8
:100A3000681979098A099B09683E73408105910507
:100A4000A8F321E0C21AD108E108F10888EE880E67
:100A500083E0981EA11CB11CC114D104E104F1046F
:100A600029F7209709F490CF0E94C900882309F440
:100A70008BCF0E94000088CFE8E4F1E0138212825D
:100A800088EE93E0A0E0B0E084839583A683B783EB
:100A900080E191E09183808385EC90E09587848765
:100AA00084EC90E09787868780EC90E0918B808B38
:100AB00081EC90E0938B828B82EC90E0958B848B21
:100AC00086EC90E0978B868B118E128E138E148E8F
:100AD000089597FB072E16F4009407D077FD09D0F0
:100AE0000E949F0507FC05D03EF4909581959F4F8D
:100AF0000895709561957F4F0895A1E21A2EAA1B63
:100B0000BB1BFD010DC0AA1FBB1FEE1FFF1FA217BD
:100B1000B307E407F50720F0A21BB30BE40BF50BBA
:100B2000661F771F881F991F1A9469F76095709543
:100B3000809590959B01AC01BD01CF010895AA1B42
:100B4000BB1B51E107C0AA1FBB1FA617B70710F0B8
:100B5000A61BB70B881F991F5A95A9F780959095EA
:100B6000BC01CD010895EE0FFF1F0590F491E02D1B
:100B70000994F894FFCF1F1C1F1E1F1E1F1F1E1F4E
:100B80001E1F00000000FF005F008C004C01BD0034
:0C0B90009B00AF003A0020000D0A00009E
:107E0000112484B714BE81FFF0D085E080938100F7
:107E100082E08093C00088E18093C10086E0809377
:107E2000C20080E18093C4008EE0C9D0259A86E02C
:107E300020E33CEF91E0309385002093840096BBD3
:107E4000B09BFECF1D9AA8958150A9F7CC24DD24C4
:107E500088248394B5E0AB2EA1E19A2EF3E0BF2EE7
:107E6000A2D0813461F49FD0082FAFD0023811F036
:107E7000013811F484E001C083E08DD089C08234E0
:107E800011F484E103C0853419F485E0A6D080C0E4
:107E9000853579F488D0E82EFF2485D0082F10E0AE
:107EA000102F00270E291F29000F111F8ED06801E7
:107EB0006FC0863521F484E090D080E0DECF843638
:107EC00009F040C070D06FD0082F6DD080E0C81688
:107ED00080E7D80618F4F601B7BEE895C0E0D1E017
:107EE00062D089930C17E1F7F0E0CF16F0E7DF06D8
:107EF00018F0F601B7BEE89568D007B600FCFDCFD4
:107F0000A601A0E0B1E02C9130E011968C91119780
:107F100090E0982F8827822B932B1296FA010C0160
:107F200087BEE89511244E5F5F4FF1E0A038BF0790
:107F300051F7F601A7BEE89507B600FCFDCF97BE46
:107F4000E89526C08437B1F42ED02DD0F82E2BD052
:107F50003CD0F601EF2C8F010F5F1F4F84911BD097
:107F6000EA94F801C1F70894C11CD11CFA94CF0C13
:107F7000D11C0EC0853739F428D08EE10CD085E9AC
:107F80000AD08FE07ACF813511F488E018D01DD067
:107F900080E101D065CF982F8091C00085FFFCCF94
:107FA0009093C60008958091C00087FFFCCF809118
:107FB000C00084FD01C0A8958091C6000895E0E648
:107FC000F0E098E1908380830895EDDF803219F02E
:107FD00088E0F5DFFFCF84E1DECF1F93182FE3DFCA
:107FE0001150E9F7F2DF1F91089580E0E8DFEE27F6
:047FF000FF270994CA
:027FFE00040479
:00000001FF
