:020000040000FA
:10000000000002283630AE000230AF008030000021
:10001000000084210000000083120000C7002F08A8
:10002000C6003830C8000230C900831200004608FC
:10003000CA004708CB00FF30C607031CC7034B08A4
:100040004A0403199A2804304807CA00CB01CB0D93
:100050004908CB074A08AE004B08AF0080300000CB
:10006000000084210000000083120000CD002F0852
:10007000CC004808AE004908AF0080300000000006
:1000800084210000000083120000CF00CB002F0865
:10009000CA00CE0002304807CA00CB01CB0D490888
:1000A000CB074A08AE004B08AF00803000000000CC
:1000B00084210000000083120000CB00D1002F0833
:1000C000D000CA00831200004C08D0004D08D100B7
:1000D000FF30CC07031CCD035108500403199328AB
:1000E0004E08AE004F08AF008030000000007121C4
:1000F0000000000083120000D0004A08831203139E
:1001000084008313831200004B1883175008831256
:100110000313800083120000CE0A0319CF0ACA0A13
:100120000319CB0A6228063083120000C80703189F
:10013000C90A1528000000009E2808000830831610
:1001400085009F0107308312990083169901B00141
:10015000B101B00A643030020318B0013008A521A3
:10016000B200AE000A30AF0030082822B300B4015C
:1001700083128519B40A3408013A031DDF28B10A35
:100180004508013A031DC628B101C501B401831217
:100190008519B40A3408013A031DDF2832080D21FD
:1001A000831285160230AF000030012233080D2182
:1001B000831285120230AF0000300122C6283108B8
:1001C0000F3A031DF62809300D21831285120130E4
:1001D000AF000030012209300D2183128516013055
:1001E000AF00003001220130C500A928831205109C
:1001F0008514051505160130AF0000300122831269
:1002000085120130AF0000300122831285160130C3
:10021000AF0000300122A9280800B5003508031DF1
:10022000172983120510851005110512702935084C
:10023000013A031D212983120514851005110512A9
:1002400070293508023A031D2B29831205108514E5
:100250000511051270293508033A031D352983124B
:10026000051485140511051270293508043A031D7B
:100270003F298312051085100515051270293508D0
:10028000053A031D49298312051485100515051229
:1002900070293508063A031D532983120510851469
:1002A0000515051270293508073A031D5D298312CB
:1002B000051485140515051270293508083A031D23
:1002C0006729831205108510051105167029350858
:1002D000093A031D702983120514851005110516AE
:1002E0000800003A03197829803A03197F2900345D
:1002F0002E08840083132F188317000808002F0886
:100300008A002E0882000800003A03198C29803ADE
:1003100003199629AF0100342E08840083132F1887
:1003200083170008AF00840A0008080000000000DE
:100330007F21AD00AE0FAF03AF0A000000007F21A8
:10034000AC002D08AF002C080800BE0003103E0CC6
:10035000BF0003103E0CC0000310C00C4008BF07D4
:100360003F0E0F39C0003F07C0000310400CBF0014
:100370000310BF0C0310BF0C3F08C0000310400D5A
:10038000C1000310C10D40084107C0000310400D1B
:10039000C1003E08C00041084002BE000A303E02D3
:1003A000C001C00D40083F07BE00080083120000D6
:1003B000D2002F08D300D401D501D6010830831212
:1003C000000056020318FB290310D40DD50DD21FCF
:1003D000F2290030D8005308D700D4075808031872
:1003E000580FD507831200005208D7000310570D8D
:1003F000D200D60ADE29831200005408AF00550847
:100400000800B7002F08B600B801B9013708390253
:10041000031D0C2A360838020318272AFB30BA00BD
:100420000430BB00FF303A07BC00FF30BD003B0882
:1004300003183B0FBD073C08BA003D08BB003D0850
:100440003C04031D122AB80A0319B90A062A080037
:10045000C2002F08C3002E08C4004308AF004408A0
:10046000D6212F08C300C20242080800013400341C
:0E0470003E3402345934003401340034003478
:02400E00D73F9A
:00000001FF
