:020000040000FA
:10000000000002283D30AE000230AF00803000001A
:1000100000008B210000000083120000C7002F08A1
:10002000C6003F30C8000230C900831200004608F5
:10003000CA004708CB00FF30C607031CC7034B08A4
:100040004A0403199A2804304807CA00CB01CB0D93
:100050004908CB074A08AE004B08AF0080300000CB
:1000600000008B210000000083120000CD002F084B
:10007000CC004808AE004908AF0080300000000006
:100080008B210000000083120000CF00CB002F085E
:10009000CA00CE0002304807CA00CB01CB0D490888
:1000A000CB074A08AE004B08AF00803000000000CC
:1000B0008B210000000083120000CB00D1002F082C
:1000C000D000CA00831200004C08D0004D08D100B7
:1000D000FF30CC07031CCD035108500403199328AB
:1000E0004E08AE004F08AF008030000000007821BD
:1000F0000000000083120000D0004A08831203139E
:1001000084008313831200004B1883175008831256
:100110000313800083120000CE0A0319CF0ACA0A13
:100120000319CB0A6228063083120000C80703189F
:10013000C90A1528000000009E2808000830831610
:1001400085009F0107308312990083169901B00141
:10015000B101B00A643030020318B0013008AC219C
:10016000B200AE000A30AF0030082F22B3000A30D0
:1001700030020318BE283008B200B301B401831264
:100180008519B40A3408013A031DE628B10A450866
:10019000013A031DCD28B101C501B40183128519AF
:1001A000B40A3408013A031DE628320814218312E8
:1001B00085160230AF000030082233081421831264
:1001C00085120230AF0000300822CD2831080F3AE6
:1001D000031DFD2809301421831285120130AF0060
:1001E0000030082209301421831285160130AF0037
:1001F000003008220130C500A9288312051085149B
:10020000051505160130AF00003008228312851253
:100210000130AF0000300822831285160130AF0094
:1002200000300822A9280800B5003508031D1E2942
:100230008312051085100511051277293508013A3A
:10024000031D28298312051485100511051277292D
:100250003508023A031D3229831205108514051151
:10026000051277293508033A031D3C29831205142A
:1002700085140511051277293508043A031D46290E
:100280008312051085100515051277293508053AE2
:10029000031D5029831205148510051505127729B1
:1002A0003508063A031D5A298312051085140515D1
:1002B000051277293508073A031D642983120514AE
:1002C00085140515051277293508083A031D6E298E
:1002D0008312051085100511051677293508093A8E
:1002E000031D7729831205148510051105160800D2
:1002F000003A03197F29803A0319862900342E0811
:10030000840083132F188317000808002F088A0021
:100310002E0882000800003A03199329803A031935
:100320009D29AF0100342E08840083132F188317F2
:100330000008AF00840A00080800000000008621C1
:10034000AD00AE0FAF03AF0A000000008621AC0085
:100350002D08AF002C080800BE0003103E0CBF00A3
:1003600003103E0CC0000310C00C4008BF073F0E36
:100370000F39C0003F07C0000310400CBF0003103E
:10038000BF0C0310BF0C3F08C0000310400DC1009C
:100390000310C10D40084107C0000310400DC1000B
:1003A0003E08C00041084002BE000A303E02C001C3
:1003B000C00D40083F07BE00080083120000D200B5
:1003C0002F08D300D401D501D601083083120000D4
:1003D00056020318022A0310D40DD50DD21FF92995
:1003E0000030D8005308D700D40758080318580F16
:1003F000D507831200005208D7000310570DD20012
:10040000D60AE529831200005408AF0055080800F9
:10041000B7002F08B600B801B90137083902031D2B
:10042000132A3608380203182E2AFB30BA0004308B
:10043000BB00FF303A07BC00FF30BD003B0803188B
:100440003B0FBD073C08BA003D08BB003D083C041B
:10045000031D192AB80A0319B90A0D2A0800C20097
:100460002F08C3002E08C4004308AF004408DD2154
:100470002F08C300C202420808000134003445348A
:0C048000023459340034013400340034DC
:02400E00D73F9A
:00000001FF
