:020000040000FA
:1000000000000228EA30AE000130AF00803000006E
:100010000000A2210000000083120000C0002F0891
:10002000BF00EC30C1000130C200831200003F0865
:10003000C3004008C400FF30BF07031CC0034408CE
:10004000430403199A2804304107C300C401C40DB6
:100050004208C4074308AE004408AF0080300000E7
:100060000000A2210000000083120000C6002F083B
:10007000C5004108AE004208AF008030000000001B
:10008000A2210000000083120000C800C4002F0855
:10009000C300C70002304107C300C401C40D4208B9
:1000A000C4074308AE004408AF00803000000000E1
:1000B000A2210000000083120000C400CA002F0823
:1000C000C900C300831200004508C9004608CA00E1
:1000D000FF30C507031CC6034A08490403199328C7
:1000E0004708AE004808AF008030000000008F21B4
:1000F0000000000083120000C900430883120313AC
:100100008400831383120000441883174908831264
:100110000313800083120000C70A0319C80AC30A28
:100120000319C40A6228063083120000C1070318AD
:10013000C20A15280000000028290800B6002F0870
:10014000B5003604031DAA28831205108510051179
:10015000051227293508013A031DB8283608003A48
:10016000031DB828831205148510051105122729CF
:100170003508023A031DC6283608003A031DC62872
:100180008312051085140511051227293508033A35
:10019000031DD4283608003A031DD4288312051401
:1001A00085140511051227293508043A031DE22894
:1001B0003608003A031DE228831205108510051544
:1001C000051227293508053A031DF0283608003A9C
:1001D000031DF02883120514851005150512272923
:1001E0003508063A031DFE283608003A031DFE288E
:1001F0008312051085140515051227293508073ABD
:10020000031D0C293608003A031D0C29831205141E
:1002100085140515051227293508083A031D1A29E2
:100220003608003A031D1A2983120510851005119E
:10023000051627293508093A031D27293608003AEB
:10024000031D2729831205148510051105160800C2
:100250000830831685009F010730831299008316AA
:1002600099010230B000B1010130B200B301B00A0F
:100270000319B10AB20A0319B30A3108803E803E5D
:10028000031D44290A303002031C4829B001B10182
:100290003308803E803E031D4F290A303202031C82
:1002A0005329B201B301B40183128519B40A340889
:1002B000013A031D7829B40183128519B40A340860
:1002C000013A031D78293008AF0031089E208312BF
:1002D00085160230AF000030C3213208AF0033086A
:1002E0009E20831285120230AF000030C3215B29AB
:1002F000831205108514051505160130AF00003076
:10030000C321831285120130AF000030C321831254
:1003100085160130AF000030C32137290800003AAC
:1003200003199629803A03199D2900342E08840068
:1003300083132F188317000808002F088A002E083F
:1003400082000800003A0319AA29803A0319B42947
:10035000AF0100342E08840083132F188317000880
:10036000AF00840A00080800000000009D21AD00D5
:10037000AE0FAF03AF0A000000009D21AC002D08B6
:10038000AF002C080800B8002F08B700B901BA0167
:1003900038083A02031DCE29370839020318E92923
:1003A000FB30BB000430BC00FF303B07BD00FF301A
:1003B000BE003C0803183C0FBE073D08BB003E08CA
:1003C000BC003E083D04031DD429B90A0319BA0A2A
:1003D000C829080002340034F83401344B340034A6
:1003E00002340034FA3401344D3400340134003422
:0603F00003340034003468
:02400E00D73F9A
:00000001FF
