:020000040000FA
:1000000000000228F730AE000130AF008030000061
:100010000000AF210000000083120000C2002F0882
:10002000C100F930C3000130C40083120000410850
:10003000C5004208C600FF30C107031CC2034608C2
:10004000450403199A2804304307C500C601C60DAC
:100050004408C6074508AE004608AF0080300000DF
:100060000000AF210000000083120000C8002F082C
:10007000C7004308AE004408AF0080300000000015
:10008000AF210000000083120000CA00C6002F0844
:10009000C500C90002304307C500C601C60D4408AB
:1000A000C6074508AE004608AF00803000000000DB
:1000B000AF210000000083120000C600CC002F0812
:1000C000CB00C500831200004708CB004808CC00D5
:1000D000FF30C707031CC8034C084B0403199328BF
:1000E0004908AE004A08AF008030000000009C21A3
:1000F0000000000083120000CB00450883120313A8
:100100008400831383120000461883174B08831260
:100110000313800083120000C90A0319CA0AC50A22
:100120000319C60A6228063083120000C3070318A9
:10013000C40A15280000000028290800B8002F086C
:10014000B7003804031DAA28831205108510051175
:10015000051227293708013A031DB8283808003A44
:10016000031DB828831205148510051105122729CF
:100170003708023A031DC6283808003A031DC6286E
:100180008312051085140511051227293708033A33
:10019000031DD4283808003A031DD42883120514FF
:1001A00085140511051227293708043A031DE22892
:1001B0003808003A031DE228831205108510051542
:1001C000051227293708053A031DF0283808003A98
:1001D000031DF02883120514851005150512272923
:1001E0003708063A031DFE283808003A031DFE288A
:1001F0008312051085140515051227293708073ABB
:10020000031D0C293808003A031D0C29831205141C
:1002100085140515051227293708083A031D1A29E0
:100220003808003A031D1A2983120510851005119C
:10023000051627293708093A031D27293808003AE7
:10024000031D2729831205148510051105160800C2
:100250000830831685009F010730831299008316AA
:1002600099010230B000B1010130B200B301B40114
:10027000B501B00A0319B10AB20A0319B30A310869
:10028000803E803E031D46290A303002031C4A2965
:10029000B001B1013308803E803E031D51290A3070
:1002A0003202031C5529B201B301B601831285192C
:1002B000B60A3608013A031D7D29B40A0319B50AA6
:1002C000B60183128519B60A3608013A031D7D2945
:1002D0003008AF0031089E20831285160230AF002F
:1002E0000030D0213208AF0033089E2083128512DF
:1002F0000230AF000030D02160293408103A031DCD
:1003000085293508003A03199B29831205108514A5
:10031000051505160130AF000030D021831285127B
:100320000130AF000030D021831285160130AF00BC
:100330000030D02139290800003A0319A329803A56
:100340000319AA2900342E08840083132F18831759
:10035000000808002F088A002E0882000800003AD2
:100360000319B729803A0319C129AF0100342E08B7
:10037000840083132F1883170008AF00840A000835
:10038000080000000000AA21AD00AE0FAF03AF0AC5
:1003900000000000AA21AC002D08AF002C080800C6
:1003A000BA002F08B900BB01BC013A083C02031D8A
:1003B000DB2939083B020318F629FB30BD00043065
:1003C000BE00FF303D07BF00FF30C0003E080318ED
:1003D0003E0FC0073F08BD004008BE0040083F0474
:1003E000031DE129BB0A0319BC0AD5290800013401
:1003F0000034FF3401344D3400340134003400340F
:02400E00D73F9A
:00000001FF
