:020000040000FA
:1000000000000228D130AE000130AF008030000087
:10001000000089210000000083120000BF002F08AB
:10002000BE00D330C0000130C100831200003E0882
:10003000C2003F08C300FF30BE07031CBF034308D4
:10004000420403199A2804304007C200C301C30DBB
:100050004108C3074208AE004308AF0080300000EB
:10006000000089210000000083120000C5002F0855
:10007000C4004008AE004108AF008030000000001E
:1000800089210000000083120000C700C3002F0870
:10009000C200C60002304007C200C301C30D4108C0
:1000A000C3074208AE004308AF00803000000000E4
:1000B00089210000000083120000C300C9002F083E
:1000C000C800C200831200004408C8004508C900E7
:1000D000FF30C407031CC5034908480403199328CB
:1000E0004608AE004708AF008030000000007621CF
:1000F0000000000083120000C800420883120313AE
:100100008400831383120000431883174808831266
:100110000313800083120000C60A0319C70AC20A2B
:100120000319C30A6228063083120000C0070318AF
:10013000C10A1528000000009E2808000830831618
:1001400085009F01073083129900831699010230C0
:10015000B0000130B100B2013008B300330AB00082
:100160003108B300330AB1000A3030020318B0017D
:100170000A3031020318B101B30183128519B30AA1
:100180003308013A031DE428B20A3D08013A031D71
:10019000CB28B201BD01B30183128519B30A33081C
:1001A000013A031DE428300812218312851602301B
:1001B000AF000030AA2131081221831285120230CB
:1001C000AF000030AA21CB2832080F3A031DFB28CC
:1001D00009301221831285120130AF000030AA21AC
:1001E00009301221831285160130AF000030AA2198
:1001F0000130BD00AC2883120510851405150516C5
:100200000130AF000030AA21831285120130AF0007
:100210000030AA21831285160130AF000030AA21D8
:10022000AC280800B4003408031D1C2983120510F3
:1002300085100511051275293408013A031D262978
:100240008312051485100511051275293408023A28
:10025000031D302983120510851405110512752917
:100260003408033A031D3A29831205148514051135
:10027000051275293408043A031D44298312051018
:1002800085100515051275293408053A031D4E29F8
:100290008312051485100515051275293408063AD0
:1002A000031D58298312051085140515051275299B
:1002B0003408073A031D62298312051485140515B5
:1002C000051275293408083A031D6C29831205109C
:1002D00085100511051675293408093A031D75297D
:1002E000831205148510051105160800003A03193C
:1002F0007D29803A0319842900342E088400831351
:100300002F188317000808002F088A002E08820083
:100310000800003A03199129803A03199B29AF017B
:1003200000342E08840083132F1883170008AF00B1
:10033000840A00080800000000008421AD00AE0F10
:10034000AF03AF0A000000008421AC002D08AF000D
:100350002C080800B6002F08B500B701B801360810
:100360003802031DB529350837020318D029FB30A0
:10037000B9000430BA00FF303907BB00FF30BC00C1
:100380003A0803183A0FBC073B08B9003C08BA000A
:100390003C083B04031DBB29B70A0319B80AAF295F
:1003A000080001340034D93401344A3400340134B3
:0403B00000340034E1
:02400E00D73F9A
:00000001FF
