:020000040000FA
:10000000000002281B30AE000230AF00803000003C
:100010000000D3210000000083120000C4002F085C
:10002000C3001D30C5000230C60083120000430823
:10003000C7004408C800FF30C307031CC4034808B6
:10004000470403199A2804304507C700C801C80DA2
:100050004608C8074708AE004808AF0080300000D7
:100060000000D3210000000083120000CA002F0806
:10007000C9004508AE004608AF008030000000000F
:10008000D3210000000083120000CC00C8002F081C
:10009000C700CB0002304507C700C801C80D46089D
:1000A000C8074708AE004808AF00803000000000D5
:1000B000D3210000000083120000C800CE002F08EA
:1000C000CD00C700831200004908CD004A08CE00C9
:1000D000FF30C907031CCA034E084D0403199328B7
:1000E0004B08AE004C08AF00803000000000C0217B
:1000F0000000000083120000CD00470883120313A4
:100100008400831383120000481883174D0883125C
:100110000313800083120000CB0A0319CC0AC70A1C
:100120000319C80A6228063083120000C5070318A5
:10013000C60A1528000000009E2808000830831613
:1001400085009F01073083129900831699010230C0
:10015000B000B1010130B200B301B401B501B00A81
:100160000319B10AB20A0319B30A3108803E803E6E
:10017000031DBC280A303002031CC028B001B101A5
:100180003308803E803E031DC7280A303202031C1C
:10019000CB28B201B301B60183128519B60A36081D
:1001A000013A031DFF28B40A0319B50A4108013AB0
:1001B000031DE2284208003A031DE228B401B501FC
:1001C000C101C201B60183128519B60A3608013A87
:1001D000031DFF283008AF00310836218312851631
:1001E0000230AF000030F4213208AF00330836216E
:1001F000831285120230AF000030F421E228340867
:100200000F3A031D1F293508003A031D1F29093025
:10021000AF0000303621831285120130AF0000306C
:10022000F4210930AF0000303621831285160130E9
:10023000AF000030F4210130C100C201AF288312A9
:1002400005108514051505160130AF000030F421A6
:10025000831285120130AF000030F421831285161D
:100260000130AF000030F421AF280800B8002F089B
:10027000B7003804031D42298312051085100511AB
:100280000512BF293708013A031D50293808003AE2
:10029000031D502983120514851005110512BF296D
:1002A0003708023A031D5E293808003A031D5E290B
:1002B00083120510851405110512BF293708033A6A
:1002C000031D6C293808003A031D6C29831205149C
:1002D000851405110512BF293708043A031D7A2930
:1002E0003808003A031D7A29831205108510051578
:1002F0000512BF293708053A031D88293808003A36
:10030000031D882983120514851005150512BF29C0
:100310003708063A031D96293808003A031D962926
:1003200083120510851405150512BF293708073AF1
:10033000031DA4293808003A031DA42983120514BB
:10034000851405150512BF293708083A031DB2297F
:100350003808003A031DB2298312051085100511D3
:100360000516BF293708093A031DBF293808003A86
:10037000031DBF29831205148510051105160800F9
:10038000003A0319C729803A0319CE2900342E08F0
:10039000840083132F188317000808002F088A0091
:1003A0002E0882000800003A0319DB29803A03195D
:1003B000E529AF0100342E08840083132F1883171A
:1003C0000008AF00840A0008080000000000CE21E9
:1003D000AD00AE0FAF03AF0A00000000CE21AC00AD
:1003E0002D08AF002C080800BA002F08B900BB0187
:1003F000BC013A083C02031DFF2939083B020318DF
:100400001A2AFB30BD000430BE00FF303D07BF009C
:10041000FF30C0003E0803183E0FC0073F08BD0074
:100420004008BE0040083F04031D052ABB0A03190B
:10043000BC0AF929080001340034233402344F3453
:080440000034013400340034E3
:02400E00D73F9A
:00000001FF
