:1000000014C02FC022C021C020C01FC01EC01DC0F0
:100010001CC01BC01AC019C018C017C016C015C01C
:1000200014C013C012C011C010C011241FBECFE5F0
:10003000D1E0DEBFCDBF20E0A0E6B0E001C01D9260
:10004000A636B207E1F745D057C0DACF87B38F6045
:1000500087BB78948BB780648BBF85B7826085BF80
:1000600008951F920F920FB60F9211248F939F93B2
:1000700081E090E090936500809364009F918F9160
:100080000F900FBE0F901F90189580916000909177
:100090006100009719F00597B9F0089598B389E0C9
:1000A000892788BB8091640090916500019739F49D
:1000B00085E090E090936300809362000895109231
:1000C000630010926200089598B386E0892788BB88
:1000D0000895BCDF109263001092620010926500D8
:1000E000109264008091620090916300909361008F
:0C00F00080936000CADFF6CFF894FFCFC9
:00000001FF
