:1000000014C02EC04CC02CC02BC02AC05CC028C05D
:1000100027C026C025C024C023C022C021C020C0C4
:100020001FC01EC01DC01CC01BC011241FBECFE5B9
:10003000D1E0DEBFCDBF10E0A0E6B0E0E4ECF3E03D
:1000400002C005900D92A437B107D9F720E0A4E7CC
:10005000B0E001C01D92A438B207E1F7A3D0B0C14F
:10006000CFCF89E088BB089598B381E0892788BB0A
:1000700008958AE088BB089586E088BB089598B308
:1000800084E0892788BB089510BE13BE83B78560BE
:1000900083BF789412BE89B7826089BF08951F928A
:1000A0000F920FB60F9211248F939F9381E090E0EF
:1000B00090938300809382009F918F910F900FBE49
:1000C0000F901F9018951F920F920FB60F92112448
:1000D0002F933F934F935F936F937F938F939F9350
:1000E000AF93BF93EF93FF93809176009091770049
:1000F0008130910519F08F30910599F48091790044
:10010000813029F4E0916400F091650009958091B7
:1001100079008430F1F4E0917000F091710009955C
:1001200018C04E97B1F480917A0090917B000196AF
:1001300090937B0080937A00809174009091750079
:10014000019690937500809374001092770010923E
:10015000760080917A0090917B000A9749F4809113
:10016000800090918100019690938100809380009F
:10017000809176009091770001969093770080931C
:100180007600FF91EF91BF91AF919F918F917F91F9
:100190006F915F914F913F912F910F900FBE0F90F4
:1001A0001F9018958FE087BB80E88BBF88E085BFE4
:1001B00018BA6ADF109278001092790010928300CA
:1001C00010928200109281001092800010927B00A9
:1001D00010927A00109277001092760010927D00B3
:1001E00010927C00109275001092740010927F00A3
:1001F00010927E0084E0F82ED2E001E010E0EE24C0
:10020000E39493E0D92EC0917900C230E9F130F443
:10021000CC2359F0C13009F464C0F7CFC33009F4DE
:1002200089C0C43009F4A9C0F0CFE0916000F0911A
:10023000610009958091820090918300019709F0F7
:100240004DC02091620030916300809180009091B8
:100250008100821793070CF441C0E092790010925C
:100260007700109276001092810010928000109218
:1002700075001092740010927B0010927A00109218
:10028000830010928200BFCFE0916800F091690076
:10029000099520916A0030916B0080917A009091CD
:1002A0007B002817390709F042C01092770010929E
:1002B00076001092810010928000109275001092CA
:1002C000740010927B0010927A0080917E009091D1
:1002D0007F00009749F1019709F095CF10927900BE
:1002E00092CF2091660030916700809174009091C8
:1002F00075002817390709F086CFD093790010923E
:100300007700109276001092810010928000109277
:1003100075001092740010927B0010927A00109277
:100320007F0010927E006FCFD09279006CCFC09387
:10033000790069CFE0916C00F0916D0009952091F2
:100340006E0030916F008091800090918100821743
:10035000930754F3F0927900109277001092760090
:10036000109281001092800010927500109274001B
:1003700010927B0010927A0046CF2091720030914B
:10038000730080917400909175002817390709F067
:100390003ACFD093790010927700109276001092A5
:1003A00081001092800010927500109274001092DB
:1003B0007B0010927A0010937F0000937E0023CF81
:0403C000F894FFCFDF
:1003C40031000A0034000300390001003C000A0037
:0403D4003F000300E3
:00000001FF
